:020000040800F2
:10000000F818002015150008111C00081D1C000818
:10001000291C0008351C0008411C000800000000D5
:100020000000000000000000000000004D1C00085F
:10003000591C000800000000651C0008D5240008B9
:100040007115000871150008711500087115000878
:100050007115000871150008711500087115000868
:100060007115000871150008711500087115000858
:100070007115000871150008711500087115000848
:100080007115000871150008711500087115000838
:100090007115000871150008711500087115000828
:1000A0007115000871150008711500087115000818
:1000B0007115000871150008711500087115000808
:1000C00071150008711500087115000871150008F8
:1000D00071150008711500087115000871150008E8
:1000E0007115000871150008851C000871150008BD
:1000F00071150008711500087115000871150008C8
:1001000071150008711500087115000871150008B7
:1001100071150008711500087115000871150008A7
:100120007115000871150008711500087115000897
:100130007115000871150008711500087115000887
:10014000711500087115000871150008711C000870
:100150007115000871150008711500087115000867
:100160007115000871150008711500087115000857
:100170007115000871150008711500087115000847
:10018000711500087115000880B485B000AF786063
:100190000023FB607B68DB684FF0FF325A607B68AE
:1001A000DB684FF0FF325A61FB7B43F08003FB7347
:1001B0007B7B43F008037B737B68DB68FA689A619A
:1001C00000BF1437BD4680BC704700BF80B586B005
:1001D00000AF78600023FB7400237B610023FB6089
:1001E000032003F005F87B68DB681B69FB607B6913
:1001F00001337B617B69184A934201D9002326E0D1
:10020000FB68C3F3C073DBB2002BE9D000237B6132
:10021000FB6843F00103FB607B68DB68FA681A61E6
:100220007B68DB681B69FB607B6901337B617B69F1
:10023000094A934206D8FB68C3F30003DBB2012BE3
:10024000EED000E000BF032002F0D2FFFB7C184696
:100250001837BD4680BD00BF400D030080B489B093
:1002600000AFF860B96011461A460B46FB711346A1
:10027000BB800023FB76FB68DB78002B22D10023B8
:100280007B610023FB61BB880333002B00DA03335F
:100290009B107B61FB79FA6832339B0013449B68A7
:1002A0003B610023FB6109E0BB681A683B691A6087
:1002B000FB690133FB61BB680433BB60FA697B698E
:1002C0009A42F1D3FB7E18462437BD4680BC704766
:1002D00080B489B000AFF860B9601346FB8000239A
:1002E000FB61FB880333002B00DA03339B10BB61F7
:1002F000FB68D3F8D0307B610023FB6109E07B69A8
:100300001A68BB681A60FB690133FB61BB68043380
:10031000BB60FA69BB699A42F1D3BB6818462437BF
:10032000BD4680BC704700BF80B487B000AF786026
:100330000B46FB7000233B610023FB737B680022AC
:10034000DA707B6801229A707B6840229A80FB7881
:10035000012B13D14FF0A0433B617B680122DA727D
:100360007B6808221A707B6804225A707B684FF4FD
:10037000A072DA807B6802221A7211E0FB78002BEF
:100380000ED1454B3B617B680022DA727B680C2200
:100390001A707B6806225A707B684FF4A062DA807C
:1003A0003A697B68DA603B6903F500631A467B684B
:1003B0001A6100237B611CE07B695A013B6913448D
:1003C00003F5106319467A687B6904339B00134474
:1003D00099607B695A013B69134403F53063194600
:1003E0007A687B6914339B00134459607B6901333D
:1003F0007B617B685B781A467B699A42DCD83B69F3
:1004000003F580631A467B685A613B6903F588638C
:100410001A467B68C3F8CC2000237B610FE07B6920
:100420005A013B69134403F5A06319467A687B6956
:1004300022339B00134499607B6901337B617B68A5
:100440001B781A467B699A42E9D800237B610FE04A
:100450007B691A033B69134403F5805319467A6894
:100460007B6932339B00134499607B6901337B6164
:100470007B681B781A467B699A42E9D83B6903F589
:1004800060631A467B68C3F80C21FB7B18461C3757
:10049000BD4680BC704700BF0000044080B588B0F6
:1004A00000AF78600023FB770023BB6100237B61F2
:1004B0000023FB607B681B7A012B4FD17B68DB68D4
:1004C0009B6B7B61BB7D6FF30003BB757B685B7AC5
:1004D000002B03D0BB7D43F01003BB757B68DB684A
:1004E0007A699A630023BB617B68DB68DB68BB6168
:1004F0003B7E6FF386133B76BB7E6FF38613BB7632
:100500003B7E43F010033B763B7E6FF3C3033B76A9
:100510003B7E6FF3C7133B76BB7E6FF34103BB7625
:10052000BB7E6FF3C303BB767B68DB68BA69DA60B6
:100530007868FFF74BFE7B68DB78012B40F0828008
:100540003B7B052262F344033B733B7B43F0200378
:100550003B737B68DB68FA689A6073E07B68DB68F2
:10056000DB68BB613B7E43F040033B767B68DB6826
:10057000BA69DA607868FFF729FE00237B61BB7DEA
:1005800043F00103BB757B681B7A032B03D1BB7D52
:1005900043F00203BB75BB7D43F00403BB75BB7D19
:1005A00043F00803BB75BB7D43F02003BB757B683C
:1005B0005B7A002B03D0BB7D43F01003BB757B68D7
:1005C000DB687A699A63142002F036FE7B68DB6888
:1005D000DB68BB617B681B7A032B03D1BB7E43F0D6
:1005E0000103BB767B68DB68BA69DA607B681B7ADB
:1005F000032B27D17B68DB681B6B3B61FB7C0122F3
:1006000062F38303FB74BB7C6FF3C713BB74FB7C87
:1006100043F01003FB74BB7C2D2262F30603BB7412
:100620007B68DB683A691A63C82002F005FEBB7C70
:1006300043F08003BB747B68DB683A691A63C820A7
:1006400002F0FAFD7B68DB78012B10D17B68DB6858
:100650009B68FB603B7B052262F344033B733B7B5F
:1006600043F020033B737B68DB68FA689A60FB7F8A
:1006700018462037BD4680BD80B485B000AF786095
:100680000023FB730023BB603B7A43F001033B7202
:100690007B68DB687A68D2689168BA680A439A60B6
:1006A000FB7B18461437BD4680BC704780B485B0CC
:1006B00000AF78600023FB730023BB603B7A43F0FC
:1006C00001033B727B68DB687A68D2689168BA681C
:1006D000D2430A409A60FB7B18461437BD4680BC63
:1006E000704700BF80B586B000AF786039600023E6
:1006F000FB7400237B610023FB60FB6843F0200355
:10070000FB603B68DBB203F01F03DAB2FB6862F305
:100710008A13FB607B68DB68FA681A617B68DB68B8
:100720001B69FB607B6901337B617B69094A9342EA
:1007300006D8FB68C3F34013DBB2012BEED000E018
:1007400000BF032002F054FDFB7C18461837BD465D
:1007500080BD00BF400D030080B586B000AF78605B
:100760000023FB7400237B610023FB60FB6843F0E4
:100770001003FB607B68DB68FA681A617B68DB68E2
:100780001B69FB607B6901337B617B69094A93428A
:1007900006D8FB68C3F30013DBB2012BEED000E0F8
:1007A00000BF032002F024FDFB7C18461837BD462D
:1007B00080BD00BF400D030080B584B000AF7860FD
:1007C0000B46FB700023FB737B68DB68DB68BB6058
:1007D000FB7A6FF34513FB72FB7A6FF38613FB72A0
:1007E000FB78012B04D1FB7A43F02003FB7206E077
:1007F000FB78002B03D1FB7A43F04003FB727B684C
:10080000DB68BA68DA60322002F016FDFB7B18461E
:100810001037BD4680BD00BF80B483B000AF7860A4
:100820007B68DB685B6903F0010318460C37BD4643
:1008300080BC704780B582B000AF78607868FFF701
:10084000EBFF0346012B14BF01230023DBB2184644
:100850000837BD4680BD00BF80B485B000AF78606A
:100860000023FB607B68DB685B69FB607B68DB689F
:100870009B69FA681340FB60FB6818461437BD4655
:1008800080BC704780B485B000AF78600B46FB70C9
:100890007B681B691B68FB60FB7803F00303DAB21B
:1008A0003B7B62F301033B737B681B69FA681A6048
:1008B00000BF1437BD4680BC704700BF80B58CB008
:1008C00000AF7860002387F82B3000237B62002381
:1008D0003B620023FB610023BB6100237B617B68DB
:1008E000D3F80C3100221A607B681B691B683B62DD
:1008F00097F821306FF3C40387F821307B681B69B8
:100900003A6A1A607B68DB7A012B33D1032178685D
:10091000FFF7B8FF7B68DB6880225A624023FB83C5
:100920008023BB837B68DB68FA699A62BA8BFB8B96
:1009300013449BB23B8380237B837B68DB68BA696B
:10094000C3F804213A8B7B8B13449BB23B83002377
:100950007B837B68DB68BA69C3F808213A8B7B8BA1
:1009600013449BB23B8300237B837B68DB68BA69BB
:10097000C3F80C2110217868FFF7B4FE7868FFF700
:10098000EBFE7B681B6900221A617B681B690022F1
:100990005A617B681B694FF0FF329A617B681B6963
:1009A0000022DA610023FB623AE07A68FB6A0433D2
:1009B0009B0013449B681B687B6297F8273023F0E9
:1009C0007F03DBB2002B0ED000237B6297F8273029
:1009D00043F0400387F8273097F8273043F00803A7
:1009E00087F8273001E000237B627A68FB6A0433D2
:1009F0009B0013449B687A6A1A607A68FB6A043326
:100A00009B0013449B6800221A617A68FB6A0433D6
:100A10009B0013449B68FF229A60FB6A0133FB62D0
:100A20007B685B781A46FB6A9A42BED80023FB6259
:100A300035E07A68FB6A14339B0013445B681B68DB
:100A4000FB60FB7B23F07F03DBB2002B0AD000238B
:100A5000FB60FB7B43F04003FB73FB7B43F008032D
:100A6000FB7301E00023FB607A68FB6A14339B0090
:100A700013445B68FA681A607A68FB6A14339B0057
:100A800013445B6800221A617A68FB6A14339B0086
:100A900013445B68FF229A60FB6A0133FB627B6848
:100AA0005B781A46FB6A9A42C3D800237B617B7D40
:100AB00043F001037B757B681B697A6812691169D1
:100AC0007A69D24311407A690A431A617B68DB78FC
:100AD000012B1BD100233B613B7C43F001033B74A2
:100AE0003B7C43F002033B743B8A402262F38A035F
:100AF0003B82BB7C43F00103BB747B8A402262F3E0
:100B000049037B827B681B693A691A63786800F045
:100B100007F897F82B3018463037BD4680BD00BF28
:100B200080B584B000AF78600023FB730023BB6006
:100B30007B68DB6800229A617B68DB684FF0FF32DC
:100B40005A617868FFF720FB7B68DB78002B03D1C4
:100B50003B7A43F010033B727B7A43F008037B72CD
:100B60007B7A43F010037B727B7A43F020037B7225
:100B7000BB7A43F00403BB72BB7A43F00803BB7239
:100B80003B7A43F008033B72BB7A43F01003BB721D
:100B9000BB7A43F02003BB727B68DB687A68D2685B
:100BA0009169BA68D2431140BA680A439A61FB7BE3
:100BB00018461037BD4680BD80B485B000AF786060
:100BC0000023FB737B681B699B68BB603B7AC3F3A4
:100BD0004103DBB2022B09D0032B04D0012B02D03E
:100BE0000323FB7305E00223FB7302E00123FB7385
:100BF00000BFFB7B18461437BD4680BC704700BF62
:100C000080B487B000AF78600023FB750023BB6021
:100C10007B681B699B683B617B689B691B68FB6009
:100C20003B7CC3F34103DBB2022B04D0BB896FF3DF
:100C30000A03BB8105E0BB89032262F30A03BB817F
:100C400000BF7B689B69FA681A607B7A43F00103F6
:100C50007B727B681B697A6812695168BA68D243F3
:100C60001140BA680A435A60FB7D18461C37BD46DE
:100C700080BC704780B487B000AF786039600023D3
:100C8000FB740023FB600023BB603B685B78012B97
:100C90000FD13B681B787A6804339B0013449B6830
:100CA0007B613B681B781A46012393409BB23B81D2
:100CB0000EE03B681B787A6814339B0013445B6832
:100CC0007B613B681B781A46012393409BB27B8172
:100CD0007B691B68FB607B7B23F07F03DBB2002B0F
:100CE00027D13B689B689BB2C3F30A039AB2BB89C6
:100CF00062F30A03BB813B68DB7803F00303DAB2DB
:100D0000BB7B62F38303BB733B68DB88DBB203F01E
:100D10000F03DAB2FB8962F38913FB81FB7B43F09B
:100D20001003FB737B7B43F080037B73FA687B6962
:100D30001A607B681B697A681269D169BA680A43CC
:100D4000DA61FB7C18461C37BD4680BC704700BF8B
:100D500080B487B000AF786039600023FB74002353
:100D6000FB600023BB603B685B78012B0FD13B68C5
:100D70001B787A6804339B0013449B687B613B6853
:100D80001B781A46012393409BB23B810EE03B68DF
:100D90001B787A6814339B0013445B687B613B6863
:100DA0001B781A46012393409BB27B817B7B6FF3B8
:100DB000C7137B73FA687B691A607B681B697A6862
:100DC0001269D169BA68D2430A40DA61FB7C1846DD
:100DD0001C37BD4680BC704780B588B000AF7860D6
:100DE00039600023FB770023BB6100237B61002374
:100DF0003B613B685B78012B40F0AB803B681B7824
:100E00007A6804339B0013449B681B687B613B68D2
:100E10001B787A6804339B0013449B681B693B6111
:100E20003B685B69002B09D13B696FF312033B619F
:100E30007B8A012262F3CC037B8222E03B685B6900
:100E4000C3F312023B6962F312033B613B685A69C8
:100E50003B689B6813445A1E3B689B68B2FBF3F3E4
:100E60009BB2C3F309039AB27B8A62F3CC037B8201
:100E70003B68DB78012B04D1FB7C012262F3461333
:100E8000FB743B681B787A6804339B0013449B68AF
:100E90003A691A617B68DB78012B0AD13B681B78C1
:100EA0007A6804339B0013449B683A6812695A615C
:100EB00015E03B68DB78012B11D03B685B69002BA8
:100EC0000DD03B681B781A4601239340BB617B68B9
:100ED0001B697A681269516BBA690A435A633B68A5
:100EE000DB78012B14D17B681B699B68FB60FB6876
:100EF000C3F30D239BB203F00103002B04D1FB7D50
:100F000043F02003FB7503E0FB7D43F01003FB750A
:100F1000FB7D43F00403FB75FB7D43F08003FB7511
:100F20003B681B787A6804339B0013449B687A699A
:100F30001A603B68DB78012B40F089803B68D968F8
:100F40003B681A783B685B699BB27868FFF786F963
:100F50007DE03B681B787A6814339B0013445B6820
:100F60001B687B613B681B787A6814339B001344D1
:100F70005B681B693B613B685B69002B0DD13B687B
:100F80009B68C3F312023B6962F312033B617B8AE5
:100F9000012262F3CC037B8220E03B685A693B6804
:100FA0009B6813445A1E3B689B68B2FBF3F39BB2E9
:100FB000C3F309039AB27B8A62F3CC037B827B8AF8
:100FC000C3F3C9039BB21A463B689B6803FB02F359
:100FD000C3F312023B6962F312033B613B681B7867
:100FE0007A6814339B0013445B683A691A617B6822
:100FF000DB78012B09D13B681B787A6814339B009E
:1010000013445B683A6812695A613B68DB78012BCC
:101010000CD13B685B79002B04D0FB7D43F02003AF
:10102000FB7503E0FB7D43F01003FB75FB7D43F094
:101030000403FB75FB7D43F08003FB753B681B7865
:101040007A6814339B0013445B687A691A60FB7FEB
:1010500018462037BD4680BD80B489B000AF7860A7
:1010600039600023FB770023BB6100233B61002331
:10107000BB603B685B78012B70D17B689B697B61AF
:101080007B691B683B617B691B69BB603B685B6973
:10109000002B09D13B7A6FF306033B72BB7A012226
:1010A00062F3C403BB7223E03B685A693B689B68E8
:1010B0009A420ED93B689A683B685A613B689B68C4
:1010C000DBB203F07F03DAB23B7A62F306033B72D2
:1010D00009E03B685B69DBB203F07F03DAB23B7A7D
:1010E00062F306033B72BB7A012262F3C403BB7254
:1010F000BA687B691A617B68DB78012B09D13B6890
:101100001B787A6804339B0013449B683A68126921
:101110005A61FB7C43F00403FB74FB7C43F08003C7
:10112000FB743A697B691A607B68DB78002B76D1A7
:101130003B685B69002B72D03B681B781A46012321
:1011400093401A46BB691343BB617B681B697A688D
:101150001269516BBA690A435A6360E03B681B78B5
:101160007A6814339B0013445B681B683B613B68DF
:101170001B787A6814339B0013445B681B69BB605F
:101180003B685B69002B0FD13B689B68DBB203F0C7
:101190007F03DAB23B7A62F306033B72BB7A012229
:1011A00062F3C403BB7212E03B689A683B685A6101
:1011B0003B689B68DBB203F07F03DAB23B7A62F3F1
:1011C00006033B72BB7A012262F3C403BB723B6825
:1011D0001B787A6814339B0013445B68BA681A6101
:1011E0007B68DB78012B09D13B681B787A68143364
:1011F0009B0013445B683A6812695A61FB7C43F0B8
:101200000403FB74FB7C43F08003FB743B681B7896
:101210007A6814339B0013445B683A691A60FB7F59
:1012200018462437BD4680BC704700BF80B487B0E5
:1012300000AF786039600023FB750023FB603B68DA
:101240005B78012B1CD13B681B787A6804339B00C8
:1012500013449B683B613B691B68FB60FB7B23F08D
:101260007F03DBB2002B03D0FB7B43F04003FB7317
:10127000BB7B43F02003BB73FA683B691A6011E043
:101280003B681B787A6814339B0013445B683B61AE
:101290003B691B68FB60BB7B43F02003BB73FA68B0
:1012A0003B691A60FB7D18461C37BD4680BC704701
:1012B00080B487B000AF786039600023FB740023EE
:1012C000FB603B685B78012B08D13B681B787A6830
:1012D00004339B0013449B687B6107E03B681B78E9
:1012E0007A6814339B0013445B687B617B691B68DD
:1012F000FB60BB7B6FF34513BB733B68DB78032B51
:1013000003D03B68DB78022B03D1FB7B43F0100357
:10131000FB73FA687B691A60FB7C18461C37BD4674
:1013200080BC704780B485B000AF78607B681B6973
:101330009B69FB607B681B69DB69FA681340FB6093
:10134000FB681B0C18461437BD4680BC704700BFB5
:1013500080B485B000AF78600B46FB70FB787A688C
:1013600014339B0013445B689B68FB607B681B69BC
:101370005B69FA681340FB60FB6818461437BD468A
:1013800080BC704780B485B000AF78607B681B6913
:101390009B69FB607B681B69DB69FA681340FB6033
:1013A000FB689BB218461437BD4680BC704700BF2F
:1013B00080B487B000AF786000233B61FB7C43F0D2
:1013C000C003FB74BB7C012262F3C403BB743B7C8F
:1013D000182262F306033B747B685B6D3A691A61FD
:1013E0007B68DB78012B16D10023FB607B685B6D8B
:1013F0007A6802F5B9625A617B685B6D1B68FB60B5
:10140000FB7B43F08003FB734FF08023FB607B6822
:101410005B6DFA681A6000BF1C37BD4680BC704720
:1014200080B485B000AF78607B689B7A002B1BD0BE
:101430007B681B699B68FB603B7B03F00103DBB2AD
:10144000002B11D07B6803F586731B68BB603B7A69
:101450006FF341033B723B7A6FF300033B727B688F
:10146000D3F80C31BA681A6000BF1437BD4680BC8F
:10147000704700BF80B400AF00BFBD4680BC70475E
:1014800080B483B000AF0346FB71FB79002B02D020
:10149000012B02D002E000BF00E000BF00BF0C370C
:1014A000BD4680BC704700BF80B400AF00BFBD46E2
:1014B00080BC704780B400AF00BFBD4680BC7047A1
:1014C00080B400AF00BFBD4680BC704780B400AFA1
:1014D00000BFBD4680BC704780B400AF00BFBD46B2
:1014E00080BC704780B582B002AF03230193002314
:1014F0000093002301224FF47041054803F0BCFD26
:10150000034B4FF470425A8300BFBD4680BD00BFFD
:10151000000C024080B582B000AF104B7B60104BD6
:101520003B6007E03B681A1D3A607A68111D7960DC
:1015300012681A603B680B4A9342F3D30A480B497E
:101540004FF000028842B8BF40F8042BFADB00F0ED
:101550005BFA00BF0837BD4680BD00BF9659000842
:10156000000000203001002030010020F810002091
:1015700080B400AFFEE700BF80B584B000AFF86074
:101580007A603B600B46FB72F86801F0BFFDF868BB
:1015900000F01EF8FB683A68C3F8E025FB68BA69FA
:1015A000C3F8E425FB687A68C3F8E825FB7A194696
:1015B000F86803F043FBFB68D3F8E4351B689847F1
:1015C000F86801F0FBFD00BF1037BD4680BD00BFCD
:1015D00080B483B000AF7860002318460C37BD4656
:1015E00080BC704780B584B000AF786007F1080315
:1015F0001946786802F000FA3B7A03F01F03012BCA
:101600000AD0022B0FD0002B14D107F10803194682
:10161000786801F021FE16E007F1080319467868A2
:1016200001F06AFE0FE007F108031946786801F03F
:1016300097FE08E03B7A23F07F03DBB21946786817
:1016400003F088FC00BF002318461037BD4680BD5C
:1016500080B584B000AF78600B46FB70FB78002B40
:1016600044D17B6803F55C73FB607B6893F81131B0
:10167000032B4ED1FB68DA69FB689B689A4220D93C
:10168000FB68DA69FB689B68D21AFB68DA617B68E1
:10169000DB78012B06D1FB68DA68FB689B681A448B
:1016A000FB68DA60FB68D968FB689A68FB68DB69ED
:1016B000934228BF13469BB21A46786803F058FE3F
:1016C00027E07B68D3F8E0351B69002B0AD07B68E4
:1016D00093F81231032B05D17B68D3F8E0351B69F1
:1016E00078689847786803F057FE12E07B68D3F873
:1016F000E0359B69002B0CD07B6893F81231032BEB
:1017000007D17B68D3F8E0359B69FA781146786891
:101710009847002318461037BD4680BD80B584B079
:1017200000AF78600B46FB70FB78002B5FD17B68C5
:1017300003F58C73FB607B6893F81131022B69D140
:10174000FB68DA69FB689B689A421BD9FB68DA6917
:10175000FB689B68D21AFB68DA617B68DB78012B37
:1017600006D1FB68DA68FB689B681A44FB68DA609C
:10177000FB68D968FB68DB699BB21A46786803F09E
:10178000C3FD47E0FB681B6AFA689268B3FBF2F19D
:1017900002FB01F29B1A002B14D1FB681A6AFB684A
:1017A0009B689A420ED3FB681A6AFB685B6A9A428E
:1017B00008D200220021786803F0A6FDFB68002211
:1017C0005A6227E07B68D3F8E035DB68002B0AD04B
:1017D0007B6893F81231032B05D17B68D3F8E03591
:1017E000DB6878689847786803F0EEFD12E07B6864
:1017F000D3F8E0355B69002B0CD07B6893F812318D
:10180000032B07D17B68D3F8E0355B69FA78114682
:1018100078689847002318461037BD4680BD00BF42
:1018200080B582B000AF7860002340220021786844
:1018300003F086FA002340228021786803F080FAC2
:101840007B68012283F812217B68D3F8E4355B685A
:101850007A68927810469847002318460837BD46A4
:1018600080BD00BF80B582B000AF78607B68D3F8E0
:10187000E4351B6998477B68032283F81221002313
:1018800018460837BD4680BD80B582B000AF78608D
:101890007B68042283F812217B68D3F8E435DB6887
:1018A0009847002318460837BD4680BD80B582B0F2
:1018B00000AF78607B68D3F8E035DB69002B05D09A
:1018C0007B68D3F8E035DB697868984700231846D1
:1018D0000837BD4680BD00BF80B582B000AF7860DC
:1018E0000B46FB707B68D3F8E0351B68FA7811462D
:1018F000786898477B68D3F8E4359B68984700235D
:1019000018460837BD4680BD80B582B000AF78600C
:101910000B46FB707B68D3F8E0355B68FA781146BC
:1019200078689847002318460837BD4680BD00BF39
:1019300080B582B000AF78607B68D3F8E0351B6A71
:1019400078689847002318460837BD4680BD00BF19
:1019500080B582B000AF78607B68D3F8E0355B6A11
:1019600078689847002318460837BD4680BD00BFF9
:1019700080B483B000AF03463960FB7197F907303C
:10198000002B0BDA0D49FB7903F00F03043B3A6897
:10199000D2B21201D2B20B441A7609E0084997F983
:1019A00007303A68D2B21201D2B20B4483F8002356
:1019B00000BF0C37BD4680BC704700BF00ED00E0A3
:1019C00000E100E080B582B000AF78607B68B3F1E1
:1019D000807F01D3012311E00A4A7B6823F07F4313
:1019E000013B53600F214FF0FF30FFF7C1FF054B64
:1019F00000229A60034B07221A600023184608371A
:101A0000BD4680BD10E000E080B584B000AF01F0BD
:101A1000D5FA00F0D7FDFFF765FD00F093F800F070
:101A2000FFF90346012B08D1434B4FF4A0421A8320
:101A30000421052000F018FA12E000F0F1F9034645
:101A4000022B08D13C4B4FF420421A830021002086
:101A500000F00AFA04E0384B4FF470421A83FEE7B4
:101A600007F10803184600F02FFA3B891BB2C82B78
:101A700004DD314B4FF480421A8303E02E4B4FF4C8
:101A800080425A833B891BB213F1C80F04DA2A4BF8
:101A90004FF480521A8303E0274B4FF480525A834D
:101AA0007B891BB2C82B04DD234B4FF400521A83F1
:101AB00003E0214B4FF400525A837B891BB213F190
:101AC000C80F04DA1C4B4FF400421A8303E01A4B90
:101AD0004FF400425A83194B1B68B3F5FA7F04D1C7
:101AE000154B4FF400525A830BE0144B1B68B3F5AF
:101AF0007A7F06D1114B00221A600F4B4FF400522F
:101B00001A83FB1D184601F02FFA0346002B0AD05A
:101B1000FB79184601F0B4F9074B4FF480521A8351
:101B2000074B0A221A60064B1B68002B98D1024B08
:101B30004FF480525A8393E7000C0240A00100202A
:101B4000A401002080B584B002AF0121082000F07C
:101B5000B5F84FF470433B6001233B710023BB7128
:101B600001237B710023FB713B4619460E4801F0AF
:101B700019F80E4B1B680E4AA2FB03239B0918465B
:101B8000FFF720FF0346002B01D000F01BF8094BA4
:101B90000093094B094A01210948FFF7EDFC00BFFA
:101BA0000837BD4680BD00BF000C0240A8000020E1
:101BB000D34D621000000020040100204C000020E2
:101BC000A801002080B483B000AF0123FB80002374
:101BD0003B6000BF3B685A1C3A600B4A9342F9D9FC
:101BE0000A4AFB881B039BB25383FB885B00FB8084
:101BF000FB880F2B01D90123FB80044AFB881B03C0
:101C00009BB21383E3E700BF1FA10700000C024053
:101C100080B400AF00BFBD4680BC704780B500AF48
:101C2000FFF7D0FF00BF80BD80B500AFFFF7CAFF50
:101C300000BF80BD80B500AFFFF7C4FF00BF80BD0F
:101C400080B500AFFFF7BEFF00BF80BD80B400AF1E
:101C500000BFBD4680BC704780B400AF00BFBD462A
:101C600080BC704780B400AF00BFBD4680BC7047E9
:101C700080B500AF024801F087FF00BF80BD00BF04
:101C8000A801002080B500AF0A4B9B7A002B0AD038
:101C9000094A094B1B6823F00603136001F08EF913
:101CA0000448FFF7BDFB4FF4802002F047FF00BF60
:101CB00080BD00BFA801002010ED00E080B483B01B
:101CC00000AF78600B46FB70FB78002B06D009490B
:101CD000084B1A6B7B6813430B6306E00549054B01
:101CE0001A6B7B68DB4313400B6300BF0C37BD46A8
:101CF00080BC70470038024080B483B000AF786089
:101D00000B46FB70FB78002B06D00949084B5A6B39
:101D10007B6813434B6306E00549054B5A6B7B68B0
:101D2000DB4313404B6300BF0C37BD4680BC70479C
:101D30000038024080B483B000AF78600B46FB707F
:101D4000FB78002B06D00949084B5A6C7B6813437B
:101D50004B6406E00549054B5A6C7B68DB43134036
:101D60004B6400BF0C37BD4680BC70470038024052
:101D700080B483B000AF78600B46FB70FB78002B1B
:101D800006D00949084B1A6A7B6813430B6206E0C8
:101D90000549054B1A6A7B68DB4313400B6200BFA1
:101DA0000C37BD4680BC70470038024080B483B019
:101DB00000AF78600B46FB707B681B889BB203F01A
:101DC0004003002B01D1002325E000BF7B681B8965
:101DD0009BB203F00303002BF8D07B681B899BB2F6
:101DE00003F08003002BF1D1FB789AB27B689A81D3
:101DF00000BF7B681B899BB203F00303002BF8D064
:101E00007B681B899BB203F08003002BF1D17B68B8
:101E10009B899BB2DBB218460C37BD4680BC70472D
:101E200080B582B000AF00F0F7FA00F06BF8FB1D50
:101E300001220F21184600F0C3F8FB793B2B04D197
:101E4000084B01221A70012308E0FB793F2B04D1D3
:101E5000044B02221A70022300E0002318460837C0
:101E6000BD4680BD3001002080B582B000AF034682
:101E70000A46FB711346BB7100F044F800F0CCFA3F
:101E8000FFF7CEFF0346012B07D1BA79FB79114644
:101E9000184600F045F9012310E0FFF7C1FF0346A3
:101EA000022B07D1BA79FB791146184600F0B4F835
:101EB000022303E0034B00221A7000231846083760
:101EC000BD4680BD3001002080B582B000AF786093
:101ED0000B4B1B78012B04D1786800F033FA0123F7
:101EE00009E0074B1B78022B04D1786800F096F9C3
:101EF000022300E0002318460837BD4680BD00BF1E
:101F00003001002080B582B000AF134B1B78002B4E
:101F10001DD10021114800F031FC01211020FFF7F4
:101F2000CDFE08233B6001233B710023BB710123DD
:101F3000FB7101237B713B461946094800F032FED4
:101F4000074B08221A83044B01221A7000E000BFDD
:101F50000837BD4680BD00BF310100200030014080
:101F60000010024080B582B000AF78600B46FB7075
:101F70001346BB700F4B08225A83BB78012B07D93D
:101F80000D4B1B78012B03D1FB7843F04003FB7012
:101F9000FB7819460948FFF709FFBB781A467968AC
:101FA000064800F029FC034B08221A8300BF0837BB
:101FB000BD4680BD001002403001002000300140CD
:101FC00080B582B000AF78600B46FB701346BB70E3
:101FD0000F4B08225A83FB7863F07F03FB70BB78BA
:101FE000012B03D9FB7843F04003FB70FB781946C3
:101FF0000848FFF7DBFEBB7800227968054800F04F
:102000003FFC034B08221A8300BF0837BD4680BD42
:10201000001002400030014080B584B000AF03469C
:102020000A46FB711346BB716723FB81FB79002BCA
:1020300003D1354B354A1A602AE0FB79012B07D1D1
:10204000FB8943F00803FB812F4B314A1A601FE0E4
:10205000FB79022B07D1FB8943F01003FB812A4B4C
:102060002C4A1A6014E0FB79032B07D1FB8943F05B
:102070001803FB81244B284A1A6009E0FB79042BE2
:102080003BD1FB8943F02003FB811F4B234A1A609D
:10209000BB79002B1AD0BB79012B04D1FB8943F407
:1020A0008043FB8112E0BB79022B06D1FB896FEAEA
:1020B00043436FEA5343FB8108E0BB79032B1ED1F6
:1020C000FB896FEA83436FEA9343FB81FB89DBB2B1
:1020D0007B7307F10D03012220211846FFF742FF11
:1020E000FB891B0A9BB2DBB27B7307F10D03012254
:1020F00024211846FFF736FF02E000BF00E000BFD2
:102100001037BD4680BD00BF980700208FC2753DC7
:102110008FC2F53DEC51383E8FC2753E48E13A3FE3
:1021200080B584B000AF03460A46FB711346BB710D
:1021300007F10E03012221211846FFF741FFFB8919
:1021400043F040039BB2FB8107F10E0301222121E2
:102150001846FFF707FF4723FB81FB79052B05D1C5
:10216000FB89FB812A4B2B4A1A600AE0FB79062B7C
:1021700047D1FB8943F020039BB2FB81244B264AC5
:102180001A6007F10E03012220211846FFF7EAFE2C
:1021900007F10E03012221211846FFF7E3FEFB8918
:1021A00003F0D0039BB2FB81FB8943F02C039BB26D
:1021B000FB81BB79042B02D1FB89FB8119E0BB7940
:1021C000052B05D1FB8943F001039BB2FB8110E095
:1021D000BB79062B05D1FB8943F002039BB2FB813F
:1021E00007E0BB79072B0ED1FB8943F003039BB2B9
:1021F000FB8107F10E03012221211846FFF7B2FEF1
:1022000002E000BF00E000BF1037BD4680BD00BF48
:1022100098070020000090410000904280B584B0F3
:1022200000AF786007F10803012228211846FFF764
:10223000C7FE07F108030133012229211846FFF7E1
:10224000BFFE07F10803023301222A211846FFF7D7
:10225000B7FE07F10803033301222B211846FFF7CD
:10226000AFFE07F10803043301222C211846FFF7C3
:10227000A7FE07F10803053301222D211846FFF7B9
:102280009FFE7B7A5BB29BB21B029AB23B7A5BB237
:102290009BB213449BB29BB21BB2184603F066F983
:1022A0000246274B1B681946104603F0B3F9034654
:1022B000184603F0FFFA03469AB27B681A80FB7A4D
:1022C0005BB29BB21B029AB2BB7A5BB29BB2134465
:1022D0009BB29BB21BB2184603F048F90246184B5A
:1022E0001B681946104603F095F90346184603F09B
:1022F000E1FA03469AB27B685A807B7B5BB29BB261
:102300001B029AB23B7B5BB29BB213449BB29BB263
:102310001BB2184603F02AF90246094B1B681946FE
:10232000104603F077F90346184603F0C3FA034654
:102330009AB27B689A8000BF1037BD4680BD00BF4F
:102340009807002080B584B000AF786007F10803DB
:10235000012229211846FFF733FE07F10803013354
:1023600001222B211846FFF72BFE07F10803023349
:1023700001222D211846FFF723FE3B7A5BB2184657
:1023800003F0F4F80246234B1B681946104603F08D
:1023900041F90346184603F08DFA03469AB27B686A
:1023A0001A807B7A5BB2184603F0E0F80246194BBC
:1023B0001B681946104603F02DF90346184603F032
:1023C00079FA03469AB27B685A80BB7A5BB21846A8
:1023D00003F0CCF802460F4B1B681946104603F079
:1023E00019F90346184603F065FA03469AB27B686A
:1023F0009A807B681B88FB817B685A887B681A807F
:10240000FB895B429BB29AB27B681A8000BF10378F
:10241000BD4680BD9807002080B483B000AF064B56
:102420007B6000BF7B685A1E7A60002BFAD100BF28
:102430000C37BD4680BC704740420F0080B483B06B
:1024400000AF03463960FB7197F90730002B0BDAB8
:102450000D49FB7903F00F03043B3A68D2B2120135
:10246000D2B20B441A7609E0084997F907303A6866
:10247000D2B21201D2B20B4483F8002300BF0C3752
:10248000BD4680BC704700BF00ED00E000E100E009
:1024900080B582B000AF78607B68B3F1807F01D3F4
:1024A000012311E00A4A7B6823F07F43013B53601C
:1024B0000F214FF0FF30FFF7C1FF054B00229A605C
:1024C000034B07221A60002318460837BD4680BD1B
:1024D00010E000E080B582B000AF374B1B680133DD
:1024E000354A1360354B1B68002B04D0334B1B68F7
:1024F000013B324A1360AFF300800023FB7152E0CE
:10250000FB792F4A9B0013445B68002B48D0FB7972
:102510002B4A9B0013445B681B7B002B40D0FB794C
:10252000274A9B0013445B689B68002B38D0FB79DB
:10253000234A9B0013445B689A68013A9A60FB79CE
:102540001F4A9B0013445B689B68002B28D1FB79D2
:102550001B4A9B0013445B681A69FB7918499B006E
:102560000B445B685B6918469047FB79144A9B00F3
:1025700013445A68FB7912499B000B445B681B6843
:102580009360FB790E4A9B0013445B685B68002BE9
:1025900006D1FB790A4A9B0013445B6800221A7338
:1025A000FB790133FB71064B1B78FA799A42A7D36A
:1025B00000BF0837BD4680BD380100203C01002027
:1025C0004401002080B500AF0D4B1B680D4AA2FBF3
:1025D00003239B091846FFF75BFF0346002B00D03F
:1025E000FEE7074B1B689B09074AA2FB03239B0AD4
:1025F000064A1360064B01221A7000BF80BD00BF5F
:10260000A8000020D34D6210179165029C0700209E
:102610004001002080B483B000AF03463960FB71F5
:102620003B6812221A80034B18460C37BD4680BC0B
:10263000704700BF6800002080B483B000AF03463D
:102640003960FB713B6804221A80034B18460C3733
:10265000BD4680BC704700BF8800002080B582B0B6
:1026600000AF03463960FB71FB79002B05D13A6856
:102670000749084801F02CFA04E03A680449064882
:1026800001F026FA024B18460837BD4680BD00BF50
:1026900038080020005900082459000880B582B08D
:1026A00000AF03463960FB713A680449044801F001
:1026B0000FFA024B18460837BD4680BD3808002087
:1026C0004859000880B582B000AF03463960FB71FD
:1026D000FB79002B05D13A680749084801F0F8F961
:1026E00004E03A680449064801F0F2F9024B184642
:1026F0000837BD4680BD00BF380800205C5900087F
:102700006C59000880B582B000AF03463960FB7198
:10271000FB79002B05D13A680749084801F0D8F940
:1027200004E03A680449054801F0D2F9024B184622
:102730000837BD4680BD00BF380800207C5900081E
:1027400080B582B000AF03463960FB71FB79002B86
:1027500005D13A680749084801F0BAF904E03A6837
:102760000449054801F0B4F9024B18460837BD4644
:1027700080BD00BF380800208859000880B584B0AB
:1027800002AF78600B46FB707B68184A93420AD10F
:10279000F978002301934FF48273009320230022E1
:1027A000124800F0C3F87B68114A93420AD1F978C5
:1027B000002301934FF482730093202300220C48DE
:1027C00000F0B4F87B680B4A93420AD1F9780023F1
:1027D00001934FF48273009320230022054800F0F8
:1027E000A5F800BF0837BD4680BD00BF00300140DE
:1027F00000380040003C004080B487B000AFF86073
:10280000B9607A60FB681B889BB203F04003002B21
:1028100031D000BFFB681B899BB203F00303002B80
:10282000F8D0FB681B899BB203F08003002BF1D129
:1028300000237B611AE0BA687B6913441B789AB263
:10284000FB689A8100BFFB681B899BB203F00303FE
:10285000002BF8D0FB681B899BB203F08003002B90
:10286000F1D1FB689B897B6901337B617A697B6865
:102870009A42E0D300E000BF1C37BD4680BC7047E1
:1028800080B487B000AFF860B9603B601346FB715D
:10289000FB681B889BB203F04003002B34D000BFC1
:1028A000FB681B899BB203F00303002BF8D0FB6885
:1028B0001B899BB203F08003002BF1D100237B61C5
:1028C0001DE0FB799AB2FB689A8100BFFB681B8907
:1028D0009BB203F00303002BF8D0FB681B899BB26B
:1028E00003F08003002BF1D1BA687B691344FA68C6
:1028F000928992B2D2B21A707B6901337B617A6994
:102900003B689A42DDD300E000BF1C37BD4680BC67
:10291000704700BF80B483B000AF78600B467B8007
:1029200000BF0C37BD4680BC704700BF80B588B083
:1029300000AF7860084611461A460346FB700B4606
:10294000BB7013463B8007F10C03184602F0D2F827
:102950007B68394A93420BD1384A384B5B6C43F45D
:1029600080535364FB78184600F06EF800233B82D6
:102970007B68334A93420BD1304A304B1B6C43F493
:1029800080431364FB78184600F08EF800233B82E6
:102990007B682C4A93420BD1284A284B1B6C43F48A
:1029A00000431364FB78184600F0CAF800233B820A
:1029B0003B883B830023BB81BB8D7B833B8DFB81AD
:1029C0004FF40073FB82BB78002B04D100237B8281
:1029D0000023BB8216E0BB78012B04D100237B824D
:1029E0000123BB820EE0BB78022B04D102237B8241
:1029F0000023BB8206E0BB78032B03D102237B823A
:102A00000123BB827B681B889BB223F040039AB2F0
:102A10007B681A8007F10C031946786802F026F8E3
:102A20007B681B889BB243F040039AB27B681A8094
:102A300000BF2037BD4680BD003001400038024055
:102A400000380040003C004080B584B002AF03462F
:102A5000FB71FB79002B09D105230193032300931C
:102A600000230022E0210D4802F02AFBFB79012B14
:102A700009D1052301930323009300230022382169
:102A8000074802F01DFBFB79032B03D10521054804
:102A9000FFF740FF00BF0837BD4680BD0000024081
:102AA000000402400030014080B584B002AF03460C
:102AB000FB71FB79002B14D10523019303230093B1
:102AC000002300224FF48061194802F0F9FA05232F
:102AD000019303230093002300220C21154802F0E8
:102AE000EFFAFB79012B0AD105230193032300930D
:102AF000002300224FF460410D4802F0E1FAFB7917
:102B0000022B09D105230193032300930023002204
:102B10000D21094802F0D4FAFB79032B03D10521DA
:102B20000648FFF7F7FE00BF0837BD4680BD00BF6F
:102B3000000402400008024000200240003800402B
:102B400080B584B002AF0346FB71FB79002B09D13D
:102B500006230193032300930023002238210E480B
:102B600002F0AEFAFB79012B0AD10623019303236D
:102B70000093002300224FF4E051084802F0A0FA2D
:102B8000FB79032B03D106210548FFF7C3FE00BFE5
:102B90000837BD4680BD00BF000402400008024067
:102BA000003C004080B487B000AF786039600023FB
:102BB0007B6100233B610023FB6000237B6176E0A7
:102BC00001227B6902FA03F33B613B681A683B69A7
:102BD0001340FB60FA683B699A4265D17B681A68CA
:102BE0007B695B00032101FA03F3DB431A407B6836
:102BF0001A607B681A683B681B7919467B695B0021
:102C000001FA03F31A437B681A603B681B79012BB6
:102C100003D03B681B79022B2ED17B689A687B69B5
:102C20005B00032101FA03F3DB431A407B689A60DF
:102C30007B689A683B685B7919467B695B0001FA9F
:102C400003F31A437B689A607B685A687B699BB27E
:102C5000012101FA03F3DB431A407B685A607B6869
:102C60005A683B689B7919467B699BB201FA03F36A
:102C70009BB21A437B685A607B68DA687B699BB2B7
:102C80005B00032101FA03F3DB431A407B68DA603F
:102C90007B68DA683B68DB7919467B695B0001FA7F
:102CA00003F31A437B68DA607B6901337B617B69DC
:102CB0000F2B85D900BF1C37BD4680BC704700BFB5
:102CC00080B485B000AF78600B467B8013467B7084
:102CD0000023FB600023BB607A787B8803F0070346
:102CE0009B0002FA03F3FB607B88DB089BB218466B
:102CF0007B88DB089BB21A467B68083253F8222097
:102D00007B8803F007039B000F2101FA03F3DB43E9
:102D100002EA03017B6800F1080243F822107B8875
:102D2000DB089BB21A467B68083253F82220FB6806
:102D30001343BB607B88DB089BB21A467B68083272
:102D4000B96843F8221000BF1437BD4680BC7047F5
:102D500080B400AF00231846BD4680BC704700BF5A
:102D600080B400AF00231846BD4680BC704700BF4A
:102D700080B485B000AFF860B9607A60FB68232B3F
:102D800074D801A252F823F06D2E00086D2E0008B1
:102D90006D2E00086D2E00086D2E00086D2E0008A7
:102DA0006D2E00086D2E00086D2E00086D2E000897
:102DB0006D2E00086D2E00086D2E00086D2E000887
:102DC0006D2E00086D2E00086D2E00086D2E000877
:102DD0006D2E00086D2E00086D2E00086D2E000867
:102DE0006D2E00086D2E00086D2E00086D2E000857
:102DF0006D2E00086D2E00086D2E00086D2E000847
:102E00006D2E00086D2E00086D2E0008192E00088A
:102E10006D2E00086D2E0008184B1B68DAB2BB68D7
:102E20001A70BB680133154A1268120AD2B21A70BE
:102E3000BB680233114A1268120CD2B21A70BB6816
:102E400003330E4A1268120ED2B21A70BB680433F2
:102E50000A4A12791A70BB680533084A52791A7007
:102E6000BB680633054A92791A7000E000BF002360
:102E700018461437BD4680BC704700BF8C00002048
:102E800080B582B000AF0346FB71FB1D01211846DF
:102E900000F004F800BF0837BD4680BD80B485B09F
:102EA00000AF786039600023FB6017E0104B1B68AF
:102EB0007968FA680A4411780E4AD1540C4B1B68A1
:102EC00001330B4A1360FB680133FB60084B1B683E
:102ED000B3F5006F02D1064B00221A60FA683B6816
:102EE0009A42E3D3002318461437BD4680BC70478E
:102EF00070010020F808002080B485B000AF786031
:102F000039600023FB601EE0144B1B687968FA6887
:102F10000A441178124AD154104B1B6801330F4AEE
:102F200013600E4B1B68802B02D10C4B00221A60E1
:102F30000A4B1A680B4B1B689A4201D1022307E027
:102F4000FB680133FB60FA683B689A42DCD30023DC
:102F500018461437BD4680BC704700BF34080020B7
:102F6000A00700202008002080B483B000AF786064
:102F70000F4B1A680F4B1B689A4201D1002312E0D5
:102F80000C4B1B680C4AD25C7B681A70094B1B689F
:102F90000133084A1360074B1B68802B02D1054B95
:102FA00000221A60012318460C37BD4680BC7047CA
:102FB0003408002020080020A007002080B500AFC2
:102FC000124A124B1B6843F0010313600F4B00229F
:102FD0009A600E4A0D4B1B6823F0847323F48033F0
:102FE00013600A4B0A4A5A60084A084B1B6823F4CC
:102FF00080231360054B0022DA6000F00DF8054BCA
:103000004FF000629A6000BF80BD00BF00380240F0
:103010001030002400ED00E080B483B000AF002346
:103020007B6000233B60354A344B1B6843F480339C
:103030001360324B1B6803F400333B607B68013341
:103040007B603B68002B03D17B68B3F5A06FF0D1A8
:103050002A4B1B6803F40033002B02D001233B6092
:1030600001E000233B603B68012B42D1234A234B04
:103070001B6C43F080531364214A214B1B6843F4BB
:10308000804313601D4A1D4B9B6893601B4A1B4B7A
:103090009B6843F400439360184A184B9B6843F4C1
:1030A000A0539360154B174A5A60144A134B1B6880
:1030B00043F08073136000BF104B1B6803F0007374
:1030C000002BF9D0104B40F205621A600B4A0B4BF3
:1030D0009B6823F003039360084A084B9B6843F006
:1030E0000203936000BF054B9B6803F00C03082BA1
:1030F000F9D100BF0C37BD4680BC70470038024094
:103100000070004019544007003C024080B584B074
:1031100000AF786001210120FEF7D0FD4FF4D853B5
:10312000BB6003237B7302233B730023BB73002329
:10313000FB7307F1080319461F48FFF733FD0A2206
:1031400008211D48FFF7BCFD0A2209211A48FFF794
:10315000B7FD0A220B211848FFF7B2FD0A220C2105
:103160001548FFF7ADFD4FF48063BB600123BB73CF
:103170000123FB7303237B7307F1080319460E48F1
:10318000FFF710FD0A220A210B48FFF799FD0121E4
:103190004FF48040FEF7CEFD01218020FEF7ACFD0C
:1031A00001214FF08050FEF7E3FD012001F0C6FC45
:1031B00000BF1037BD4680BD0000024080B584B01E
:1031C00000AF78604FF4C06001F0C6FC43233B734E
:1031D00001237B730323BB730123FB7307F10C03F0
:1031E000184601F0CBFC00BF1037BD4680BD00BFC4
:1031F00080B485B000AF78600023FB607A68134626
:103200001B019B1ADB001A460A4BA3FB0213D21ABE
:10321000520813449B08BB60FB680133FB60FA68EB
:10322000BB689A4200D8F7E700BF1437BD4680BCA0
:10323000704700BF2549922480B582B000AF786006
:103240007B684FF47A7202FB03F31846FFF7D0FF56
:1032500000BF0837BD4680BD80B584B000AF786040
:1032600039600023FB733B685B78092B39D801A2D6
:1032700052F823F0C5320008D9320008E3320008C2
:10328000CF320008E3320008A73200089D32000860
:10329000E3320008BB320008B132000839687868B0
:1032A00000F036F922E03968786800F005FA1DE090
:1032B0003968786800F03EFA18E03968786800F0FC
:1032C000B3FA13E03968786800F0DEFA0EE0396886
:1032D000786800F001FB09E03968786800F064FB69
:1032E00004E03968786800F0CFFB00BFFB7B18462C
:1032F0001037BD4680BD00BF80B584B000AF786098
:1033000039600023FB737B6893F81231032B1BD1C8
:103310003B689B88DBB2012B11D87B68D3F8E03582
:103320009B683968786898473B68DB88002B10D128
:10333000FB7B002B0DD1786802F02EF809E039688C
:10334000786800F0A1FB04E03968786800F09CFB25
:1033500000E000BFFB7B18461037BD4680BD00BFB4
:1033600080B584B000AF786039600023FB733B68A0
:103370009B88BB733B685B78012B39D0032B02D051
:10338000002B6CD0BDE07B6893F81231022B02D089
:10339000032B0CD025E0BB7B002B27D0BB7B802BE5
:1033A00024D0BB7B1946786801F0D4FD1EE03B6851
:1033B0005B88002B0AD1BB7B002B07D0BB7B802B0B
:1033C00004D0BB7B1946786801F0C4FD7B68D3F854
:1033D000E0359B68396878689847786801F0DCFFC9
:1033E00005E03968786800F04FFB00E000BF88E036
:1033F0007B6893F81231022B02D0032B0CD025E00E
:10340000BB7B002B27D0BB7B802B24D0BB7B1946FA
:10341000786801F09FFD1EE03B685B88002B1CD1A3
:10342000BB7B002B0ED0BB7B802B0BD0BB7B19460C
:10343000786801F0C9FD7B68D3F8E0359B6839688E
:1034400078689847786801F0A7FF06E039687868DF
:1034500000F01AFB02E000BF53E000BF51E07B68C0
:1034600093F81231022B02D0032B0CD042E0BB7B2D
:10347000002B44D0BB7B802B41D0BB7B19467868A6
:1034800001F068FD3BE0BB7B5BB2002B15DABB7B38
:1034900003F07F02796813469B001344DB000B4462
:1034A00003F58D731B78002B03D0184B01221A6093
:1034B0001AE0164B00221A6016E0BB7B5BB2002BB1
:1034C00012DBBA7B796813469B001344DB000B4484
:1034D00003F272331B78002B03D00C4B01221A60CD
:1034E00002E00A4B00221A6002220849786801F0C3
:1034F000EBFE05E03968786800F0C6FA00E000BF2E
:1035000000BFFB7B18461037BD4680BD5C01002024
:1035100080B584B000AF786039603B685B881B0A77
:103520009BB2013B062B00F2A98001A252F823F0C6
:103530004D3500087D350008A53500087D360008AA
:103540007D36000869360008733600087B68D3F8BA
:10355000E8351B687A68927807F10A0110469847A7
:10356000F8603B68DB88402B05D07B6893F812310C
:10357000012B40F0888008237B8184E07B68D3F8AE
:10358000E0359B6A7A68927807F10A0110469847FD
:10359000F860FB68013302221A707B68FA68C3F88E
:1035A000EC2571E03B685B88DBB2052B56D801A2A5
:1035B00052F823F0CD350008E5350008FD35000848
:1035C000153600082D360008453600087B68D3F80C
:1035D000E8355B687A68927807F10A0110469847E7
:1035E000F86040E07B68D3F8E8359B687A689278A9
:1035F00007F10A0110469847F86034E07B68D3F879
:10360000E835DB687A68927807F10A011046984736
:10361000F86028E07B68D3F8E8351B697A6892780F
:1036200007F10A0110469847F8601CE07B68D3F860
:10363000E8355B697A68927807F10A011046984785
:10364000F86010E07B68D3F8E8359B697A68927877
:1036500007F10A0110469847F86004E03968786875
:1036600000F012FA25E00FE03968786800F00CFAF3
:103670001FE03968786800F007FA1AE0396878685E
:1036800000F002FA15E000BF7B89002B11D03B68E7
:10369000DB88002B0DD03B68DA887B89934228BFFA
:1036A00013469BB27B817B891A46F968786801F0E2
:1036B0000BFE1037BD4680BD80B584B000AF78608A
:1036C00039603B689B88002B2CD13B68DB88002B42
:1036D00028D13B685B88DBB203F07F03FB737B6818
:1036E00093F81231032B04D13968786800F0CCF9D3
:1036F0001CE07B68FA7B83F81321FB7B1946786812
:1037000001F09CFC786801F047FEFB7B002B04D0A5
:103710007B68022283F8122108E07B68012283F88B
:10372000122103E03968786800F0AEF900BF103765
:10373000BD4680BD80B582B000AF786039603B681F
:103740005B88DAB2374B1A70364B1B78012B04D9E1
:103750003968786800F098F95FE07B6893F8123177
:10376000022B02D0032B1BD052E02E4B1B78002BD8
:1037700012D02C4B1A787B6883F810217B680322C7
:1037800083F81221274B1B7819467868FEF7A4F8B6
:10379000786801F001FE40E0786801F0FDFD3CE052
:1037A000204B1B78002B12D17B68022283F8122158
:1037B0001C4B1A787B6883F810211A4B1B7819462A
:1037C0007868FEF7A1F8786801F0E6FD25E07B68EF
:1037D00093F81021134B1B789A4215D07B6893F80D
:1037E000103119467868FEF78FF80E4B1A787B680F
:1037F00083F810210B4B1B7819467868FEF76CF89C
:10380000786801F0C9FD08E0786801F0C5FD04E0C2
:103810003968786800F038F900BF00BF0837BD4646
:1038200080BD00BF6801002080B582B000AF786025
:1038300039603B68DB88012B04D03968786800F078
:1038400023F91BE07B6893F81231022B02D0032B83
:1038500006D00EE001220B49786801F035FD0DE03D
:103860007B6803F5887301221946786801F02CFD06
:1038700004E03968786800F007F900BF00BF083736
:10388000BD4680BD6001002080B582B000AF786089
:1038900039607B6893F81231023B012B11D87B68A9
:1038A000D3F81431002B03D00A4B03221A6002E034
:1038B000084B01221A6001220649786801F004FDD4
:1038C00004E03968786800F0DFF800BF00BF08370F
:1038D000BD4680BD6401002080B584B000AF786033
:1038E00039600023FB733B685B88012B0ED17B683A
:1038F0000122C3F814217B68D3F8E0359B6839684E
:1039000078689847786801F047FD48E03B685B8835
:10391000022B44D13B689B88DBB2002B3FD17B68F4
:103920001B695B68BB603B689B881B0A9BB2FB738F
:10393000FB7B013B042B2BD801A252F823F000BFE4
:1039400055390008613900086D39000879390008D7
:10395000853900083B7A012262F306133B7217E0B7
:103960003B7A022262F306133B7211E03B7A032298
:1039700062F306133B720BE03B7A042262F30613F8
:103980003B7205E03B7A052262F306133B7200BFEF
:103990007B681B69BA685A60786801F0FDFC00BF5B
:1039A0001037BD4680BD00BF80B582B000AF7860E3
:1039B00039607B6893F81231023B012B12D83B68C7
:1039C0005B88012B13D17B680022C3F814217B682C
:1039D000D3F8E0359B68396878689847786801F0D3
:1039E000DBFC04E03968786800F04EF800E000BFC6
:1039F00000BF0837BD4680BD80B483B000AF78609B
:103A000039607B6893F8C8253B681A707B6893F827
:103A1000C9253B685A707B6893F8CA359AB27B68AF
:103A200093F8CB359BB21B029BB213449AB23B680E
:103A30005A807B6893F8CC359AB27B6893F8CD3581
:103A40009BB21B029BB213449AB23B689A807B687C
:103A500093F8CE359AB27B6893F8CF359BB21B02B0
:103A60009BB213449AB23B68DA803B68DB881A4603
:103A70007B68C3F83C217B68012283F8112100BFD9
:103A80000C37BD4680BC704780B582B000AF78600F
:103A900039603B681B78DBB25BB2002B04DA802113
:103AA000786801F057FA0CE03B68DB88002B04D102
:103AB0008021786801F04EFA03E00021786801F077
:103AC00049FA7868FDF774FC00BF0837BD4680BD31
:103AD00080B586B000AFF860B9607A600023FB75EE
:103AE000FB68002B33D0F86800F036F8034601334A
:103AF0009BB25B009AB27B681A80FB7D5A1CFA75F8
:103B00001A46BB6813447A681288D2B21A70FB7DD9
:103B10005A1CFA751A46BB68134403221A7012E045
:103B2000FB7D5A1CFA751A46BB681A44FB68591C7F
:103B3000F9601B781370FB7D5A1CFA751A46BB6836
:103B4000134400221A70FB681B78002BE8D100BFD9
:103B50001837BD4680BD00BF80B485B000AF786027
:103B60000023FB7305E0FB7B0133FB737B680133B0
:103B70007B607B681B78002BF5D1FB7B18461437E4
:103B8000BD4680BC704700BF80B586B000AF78608E
:103B900000237B617868FCF74DFE0346002B00F0A4
:103BA0009C807868FCF758FE03463B613B69002B1C
:103BB00001D1002392E0BB7C03F00803DBB2002BB1
:103BC00006D0786800F012FA02467B6913437B61E5
:103BD000BB7C03F00403DBB2002B06D0786800F056
:103BE0000FF902467B6913437B613B7C03F00203C0
:103BF000DBB2002B09D00023FB603B7B43F00203C8
:103C00003B737B68DB68FA685A61FB7C23F07F03B7
:103C1000DBB2002B06D0786800F064F802467B69BE
:103C200013437B617B7C03F00803DBB2002B06D0DF
:103C3000786800F097F802467B6913437B613B7C10
:103C400003F00803DBB2002B06D0786800F08AFA94
:103C500002467B6913437B613B7C03F01003DBB2BC
:103C6000002B06D0786800F097FA02467B69134370
:103C70007B617B7C03F01003DBB2002B06D07868FD
:103C800000F07EFB02467B6913437B617B7C03F083
:103C90002003DBB2002B06D0786800F00DFC024652
:103CA0007B6913437B61BB7C03F01003DBB2002B09
:103CB00006D0786800F03CFC02467B6913437B61C8
:103CC000BB7C03F02003DBB2002B06D0786800F049
:103CD00049FC02467B6913437B617B6918461837B0
:103CE000BD4680BD80B586B000AF78607B689B7AAA
:103CF000002B11D07B6803F586731B68FB603B7B50
:103D00006FF341033B733B7B6FF300033B737B68B3
:103D1000D3F80C31FA681A6000233B613B7C43F016
:103D200001033B747B681B697A68126951683A69C0
:103D3000D2430A405A600A4B1B689B6978689847CF
:103D400000237B61FB7D43F08003FB757B68DB68B0
:103D50007A695A61012318461837BD4680BD00BFF5
:103D60004800002080B586B000AF7860224B1B6809
:103D70005B69786898477B681B699B68FB600023D8
:103D80007B617B7D43F008037B757B68DB687A6928
:103D90005A617B689B7A002B29D03B7B03F001039F
:103DA000DBB2002B23D000233B613B7C43F00103BB
:103DB0003B747B68D3F80C317A68D2F80C21116817
:103DC0003A690A431A603B7C43F002033B747B6808
:103DD000D3F80C317A68D2F80C2111683A690A4399
:103DE0001A60064A054B1B6943F006031361012361
:103DF00018461837BD4680BD4800002000ED00E0A1
:103E000080B586B000AF786000233B610023BB60C3
:103E10007868FDF7B7FA7861DCE07B6903F00103AD
:103E2000002B00F0D1803B69DBB21946786800F0C6
:103E3000B3FB0346BB603B7A03F00103DBB2002B0C
:103E400032D001223B6902FA03F3FB607B681B69F5
:103E50007A681269516BFA68D2430A405A630023A8
:103E6000BB603B7A43F001033B727A683B690433E1
:103E70009B0013449B68BA689A605B4B1B685B6845
:103E80003A69D2B21146786898477B68DB78012B93
:103E90000AD13B69002B07D17B6893F81131042BC1
:103EA00002D17868FDF784FA3B7A03F00403DBB2B1
:103EB000002B0DD00023BB603B7A43F004033B7220
:103EC0007A683B6904339B0013449B68BA689A6024
:103ED0003B7A03F00803DBB2002B0DD00023BB605C
:103EE0003B7A43F008033B727A683B6904339B00DA
:103EF00013449B68BA689A603B7A03F01003DBB204
:103F0000002B0DD00023BB603B7A43F010033B72C3
:103F10007A683B6904339B0013449B68BA689A60D3
:103F20003B7A03F02003DBB2002B0DD00023BB60F3
:103F30003B7A43F020033B727A683B6904339B0071
:103F400013449B68BA689A603B7A03F04003DBB283
:103F5000002B0DD00023BB603B7A43F040033B7243
:103F60007A683B6904339B0013449B68BA689A6083
:103F70003B7A03F00203DBB2002B0DD00023BB60C1
:103F80003B7A43F002033B727A683B6904339B003F
:103F900013449B68BA689A603B7A23F07F03DBB2D4
:103FA000002B11D03969786800F078F90023BB60E4
:103FB0003B7A43F080033B727A683B6904339B0091
:103FC00013449B68BA689A603B6901333B617B6923
:103FD0005B087B617B69002B7FF41FAF01231846D0
:103FE0001837BD4680BD00BF4800002080B586B0B0
:103FF00000AF786000233B610023FB607868FDF729
:1040000091F97861A3E07B6903F00103002B00F0D4
:1040100098803B69DBB219467868FDF799F9034649
:10402000FB603B7B03F00103DBB2002B48D0002395
:10403000FB603B7B43F001033B737A683B691433BD
:104040009B0013445B68FA689A607B68DB78012BFD
:104050001FD17A683B6914339B0013445B681B696A
:10406000BB6079683A6913469B001344DB000B443C
:1040700003F55E731B68BA68C2F31202991A786876
:104080003A6913469B001344DB00034403F5627353
:104090001960334B1B681B683A69D2B211467868C5
:1040A00098477B68DB78012B0AD13B69002B07D14D
:1040B0007B6893F81131052B02D17868FDF778F908
:1040C0003B7B03F00203DBB2002B0DD00023FB602F
:1040D0003B7B43F002033B737A683B6914339B00DC
:1040E00013445B68FA689A603B7B03F00403DBB21D
:1040F000002B0DD00023FB603B7B43F004033B739C
:104100007A683B6914339B0013445B68FA689A60D1
:104110003B7B03F00803DBB2002B12D0104B1B6873
:104120009B68786898470023FB603B7B43F008035B
:104130003B737A683B6914339B0013445B68FA68ED
:104140009A603B6901333B617B695B087B617B69FA
:10415000002B7FF458AF012318461837BD4680BDA9
:104160004800002080B584B000AF7860094B1B6820
:10417000DB68786898470023FB603B7B43F00803CB
:104180003B737B68DB68FA685A6101231846103775
:10419000BD4680BD4800002080B586B000AF786085
:1041A00000233B613B7C43F010033B747B68DB687E
:1041B0007A68D26891693A69D2430A409A617B6809
:1041C000DB681B6AFB603B7BC3F30303DBB21A466D
:1041D00013469B001344DB0003F55C737A681344B9
:1041E0007B61BB7BC3F34303DBB2013B052B45D8AB
:1041F00001A252F823F000BF7D42000811420008DE
:104200007D4200087D4200087D42000859420008B6
:10421000BA8947F6F07313409BB2002B30D07B690C
:10422000D968BB89C3F30A139BB21A467868FCF7B6
:104230004FF87B69DB68BA89C2F30A1292B21A445A
:104240007B69DA607B699B69BA89C2F30A1292B210
:104250001A447B699A6113E07B6803F5B96308220D
:1042600019467868FCF734F87B699B69BA89C2F310
:104270000A1292B21A447B699A6102E000BF00E020
:1042800000BF7B68DB687A68D26891693A690A4343
:104290009A61012318461837BD4680BD80B586B0A7
:1042A00000AF7860396000237B610023BB603A680F
:1042B00013469B001344DB0003F58C737A681344A8
:1042C000FB60FB685A69FB689B69D31A7B61FB68DA
:1042D0009A687B699A4202D2FB689B687B617B6922
:1042E00003339B083B617A683B6804339B001344AB
:1042F0009B689B69BB602EE0FB685A69FB689B6901
:10430000D31A7B61FB689A687B699A4202D2FB6888
:104310009B687B617B6903339B083B61FB68D968C1
:104320003B68DAB27B699BB27868FBF797FFFB6862
:10433000DA687B691A44FB68DA60FB689A697B6912
:104340001A44FB689A617A683B6804339B00134403
:104350009B689B69BB603B891A463B699A4209D9B5
:10436000FB689A69FB685B699A4203D2FB685B69E8
:10437000002BC1D1012318461837BD4680BD00BFB0
:1043800080B58AB000AF786000233B6100233B62B8
:104390000023FB610023BB6100237B610023FB60E2
:1043A0003B7C43F001033B747B681B697A681269AC
:1043B00051683A69D2430A405A6000217868FCF794
:1043C00091F900237B6212E07A687B6A04339B00D8
:1043D00013449B68FF229A607A687B6A14339B00BF
:1043E00013445B68FF229A607B6A01337B627B68BF
:1043F0005B781A467B6A9A42E6D87B681B694FF065
:10440000FF329A6101233B8401237B847B681B6913
:104410003A6ADA613B7F43F008033B773B7F43F026
:1044200001033B773B7F43F004033B773B7F43F043
:1044300002033B777B681B69FA695A613B7E43F054
:1044400001033B763B7E43F008033B763B7E43F023
:1044500002033B763B7E43F004033B763B7E43F016
:1044600020033B767B681B69BA691A617B681B690C
:104470001B687B61BB8A6FF30A13BB827B681B6975
:104480007A691A607868FCF793FF0023FB607B7BF6
:1044900043F010037B737B68DB68FA685A61054B55
:1044A0001B681B6978689847012318462837BD4662
:1044B00080BD00BF4800002080B584B000AF7860A8
:1044C0007868FCF79DFB7B68DB68DB68BB6078681D
:1044D000FCF772FB0346032B0CD17B6800229A7019
:1044E0007B684FF400729A807B7A092262F385031D
:1044F0007B720AE07B6801229A707B6840229A8076
:104500007B7A052262F385037B727B68DB68BA687D
:10451000DA600023FB607B7B43F020037B737B68C6
:10452000DB68FA685A61012318461037BD4680BD22
:1045300080B584B000AF78600023FB60084B1B6837
:10454000DB6978689847BB7B43F01003BB737B68DB
:10455000DB68FA685A61012318461037BD4680BDF2
:104560004800002080B584B000AF78600023FB6075
:10457000084B1B681B6A78689847BB7B43F0200395
:10458000BB737B68DB68FA685A61012318461037F1
:10459000BD4680BD4800002080B487B000AF786081
:1045A0000B46FB707B681B691B697B617B681B6921
:1045B0005B6B3B61FB783A6922FA03F3DB01DBB208
:1045C0007A6913437B61FB787A6804339B00134458
:1045D0009B689A687B691340FB60FB6818461C3730
:1045E000BD4680BC704700BF80B584B000AF786026
:1045F0000B46FB707B68D3F8EC3539331A880223FD
:104600008121786800F09CFB7B68D3F8EC3540335F
:104610001A8802230121786800F092FB0323082204
:104620008221786800F08CFB0D4BFB60FB68043343
:1046300002221A70FB68053300221A70094B1B68AE
:1046400098477B68D3F8EC3540331B88064A012134
:10465000786800F001FC002318461037BD4680BD85
:104660006800002094000020B008002080B582B0CF
:1046700000AF78600B46FB708121786800F0B4FBD6
:104680000121786800F0B0FB8221786800F0ACFB73
:10469000034B5B689847002318460837BD4680BD2A
:1046A0009400002080B584B000AF786039603B682A
:1046B0001B7803F06003002B3ED0202B36D13B68E3
:1046C000DB88002B28D03B681B78DBB25BB2002B69
:1046D00010DA364B9B683A68527810463A68D288AE
:1046E000334998473B68DB881A463149786800F0BF
:1046F000EBFD19E03B685B781A462E4B1A603B686D
:10470000DB881A462C4B1A603B68DB881A4628491E
:10471000786800F00DFE07E0244B9B683A685278F9
:10472000104600220021984700233AE03968786853
:10473000FFF7AAF9022334E03B685B780A2B18D014
:104740000B2B1CD0062B2BD13B685B881B0A9BB222
:10475000212B07D1194BBB603B68DB883A2B28BF64
:104760003A23FB81FB891A46B968786800F0ACFDF2
:1047700016E001221249786800F0A6FD10E03B68BF
:104780005B88DBB2002B06D13B685B88DBB21A4644
:104790000B4B1A6003E039687868FFF775F900BFC2
:1047A000002318461037BD4680BD00BF940000208E
:1047B000F00800200001002080010020CE00002031
:1047C0006C01002080B582B000AF7860094B1B6897
:1047D000FF2B0AD0084B9B68064A1068074A1268EC
:1047E00007499847034BFF221A60002318460837F1
:1047F000BD4680BD00010020940000208001002003
:10480000F008002080B584B000AF78600B46FB70E4
:10481000284B1B78012B48D1274B1B68002B03D159
:10482000244B00221A7040E07B68D3F8EC35393312
:104830001B881A46204B1B689A421ED21F4B1B68CE
:10484000FB817B68D3F8EC35B3F83930BB817B68EA
:10485000D3F8EC3539331B881A46184B1B681344C0
:10486000164A1360144B1B687A68D2F8EC2539326B
:1048700012889B1A104A13600FE0104B1B68FB81D3
:104880000D4B1B68BB810D4B1A680B4B1B68134407
:104890000A4A1360084B00221A60FB89084A1A442E
:1048A000BB898121786800F019FB00231846103776
:1048B000BD4680BD7C0100207801002074010020ED
:1048C000F808002080B584B000AF78600B46FB701C
:1048D000FA78796813469B001344DB000B4403F518
:1048E00062731B68FB810A4B1B69FA8911460948F0
:1048F00098477B68D3F8EC3540331B88054A012183
:10490000786800F0A9FA002318461037BD4680BD2C
:1049100094000020B008002080B582B000AF78601D
:10492000084B1B685A1C07490A60052B05D1054B2B
:1049300000221A60786800F007F80023184608374C
:10494000BD4680BD8401002080B584B000AF786092
:10495000384B1B78012B69D0374B1B68B3F5006FC0
:1049600002D1354B00221A60334B1A68334B1B6857
:104970009A4203D12F4B00221A7057E02E4B1A682F
:104980002E4B1B689A4206D92B4B1B68C3F500635C
:104990002B4A136006E0294B1A68274B1B68D31A71
:1049A000274A13607B68D3F8EC3539331B881A46E5
:1049B000234B1B689A421ED21F4B1B68FB817B68EE
:1049C000D3F8EC35B3F83930BB817B68D3F8EC35DC
:1049D00039331B881A46184B1B681344164A136058
:1049E000174B1B687A68D2F8EC25393212889B1A6B
:1049F000134A13600FE0104B1B68FB81104B1B68C0
:104A0000BB810D4B1A680E4B1B6813440A4A136096
:104A10000B4B00221A60074B01221A70FB89094ACE
:104A20001A44BB898121786800F058FA1037BD46D6
:104A300080BD00BF7C0100207401002070010020B7
:104A400078010020F808002080B483B000AF03464E
:104A50003960FB713B6843221A80034B18460C37C0
:104A6000BD4680BC704700BFBC00002080B485B04C
:104A700000AF786039600023FB817B681B88FB8175
:104A8000FB8903F44153FB813B681A883B685B88D0
:104A900013439AB23B689B8813439AB23B68DB8806
:104AA00013439AB23B681B8913439AB23B685B89F4
:104AB00013439AB23B689B8913439AB23B68DB89E4
:104AC00013439AB2FB891343FB817B68FA891A80EE
:104AD0007B689B8B9BB223F400639AB27B689A83BA
:104AE0003B681A8A7B681A8200BF1437BD4680BCB7
:104AF000704700BF80B483B000AF78607B6800224D
:104B00001A807B6800225A807B6800229A807B682A
:104B10000022DA807B6800221A817B6800225A8199
:104B20007B6800229A817B680022DA817B680722F9
:104B30001A8200BF0C37BD4680BC704780B483B07A
:104B400000AF7860034A7B68536100BF0C37BD46F5
:104B500080BC7047003C014080B483B000AF7860F7
:104B6000054A7B6843F0BF6343F40033D36000BF62
:104B70000C37BD4680BC704700ED00E080B485B0C6
:104B800000AF78600023FB730023BB730F237B739C
:104B90007B68DB78002B38D0264BDB68DB4303F4E3
:104BA000E0631B0AFB73FB7BC3F10403BB737A7BDB
:104BB000FB7B42FA03F37B737B685B781A46BB7B13
:104BC00002FA03F3FB737B689A787B7B1340DAB2BB
:104BD000FB7B1343FB73FB7B1B01FB73164A7B6858
:104BE0001B781344FA7B83F80023134A7B681B78F5
:104BF0005B09DBB218467B681B7803F01F030121B9
:104C000001FA03F342F820300FE00B497B681B7870
:104C10005B09DBB218467B681B7803F01F03012297
:104C20009A4000F1200341F8232000BF1437BD460D
:104C300080BC704700ED00E000E100E080B584B08A
:104C400000AF78600B46FB70FB7819467868FBF77D
:104C50006BFB7B68012283F812217B68002283F8BA
:104C600013210023FB6023E0FA6813469B001344E2
:104C7000DB0003F58C737A681344BB60BB680122C8
:104C80005A70FB68DAB2BB681A70FB689AB2BB68EC
:104C9000DA80BB680022DA70BB6840229A60BB6889
:104CA0000022DA60BB6800225A61FB680133FB60B6
:104CB0007B685B781A46FB689A42D5D80023FB6074
:104CC00023E0FA6813469B001344DB0003F55C7392
:104CD0007A681344BB60BB6800225A70FB68DAB282
:104CE000BB681A70FB689AB2BB68DA80BB680022A6
:104CF000DA70BB6840229A60BB680022DA60BB6849
:104D000000225A61FB680133FB607B685B781A46BE
:104D1000FB689A42D5D87868FBF7C8FC7868FBF73F
:104D2000BDFB00217868FBF747FD7868FBF7C6FDFF
:104D30007868FBF7A1FC00BF1037BD4680BD00BFFF
:104D400080B584B000AF7860084611461A46034625
:104D5000FB700B463B801346BB70FB785BB2002BAD
:104D60000CDAFB7803F07F0213469B001344DB0050
:104D700003F58C737A681344FB600BE0FB7803F057
:104D80007F0213469B001344DB0003F55C737A68D3
:104D90001344FB60FB7803F07F03DAB2FB681A7000
:104DA000FB78DB09DBB21A46FB685A703A88FB686D
:104DB0009A60FB68BA78DA70FB685B78002B04D0E5
:104DC000FB681B789AB2FB68DA80BB78022B02D1B1
:104DD000FB6800221A71F9687868FBF74BFF002323
:104DE00018461037BD4680BD80B584B000AF7860EE
:104DF0000B46FB70FB785BB2002B0CDAFB7803F000
:104E00007F0213469B001344DB0003F58C737A6822
:104E10001344FB600BE0FB7803F07F0213469B001A
:104E20001344DB0003F55C737A681344FB60FB7882
:104E300003F07F03DAB2FB681A70FB78DB09DBB2A0
:104E40001A46FB685A70F9687868FBF781FF0023FF
:104E500018461037BD4680BD80B586B000AFF860FB
:104E60007A601A460B46FB7213463B81FB7A03F0CD
:104E70007F0213469B001344DB0003F55C73FA6862
:104E800013447B617B697A68DA603A897B695A618D
:104E90007B6900229A617B6900225A70FB7A03F0D9
:104EA0007F03DAB27B691A70FB68DB78012B02D1D1
:104EB0007A687B691A617B691B78002B04D1796958
:104EC000F868FCF7C9F803E07969F868FBF784FF34
:104ED000002318461837BD4680BD00BF80B586B098
:104EE00000AFF8607A603B600B46FB72FB7A03F020
:104EF0007F0213469B001344DB0003F58C73FA68B2
:104F000013447B617B6901225A70FB7A03F07F03B3
:104F1000DAB27B691A707B697A68DA607A687B69D1
:104F20001A617B6900229A617B693A685A617B69E0
:104F30001B78002B04D17969F868FCF78DF803E041
:104F40007969F868FBF748FF002318461837BD4613
:104F500080BD00BF80B584B000AF78600B46FB70A9
:104F6000FB785BB2002B0CDAFB7803F07F02134670
:104F70009B001344DB0003F58C737A681344FB60D9
:104F800009E0FA7813469B001344DB0003F55C73D9
:104F90007A681344FB60FB6801229A70FB7803F087
:104FA0007F03DAB2FB681A70FB78DB09DBB21A46C2
:104FB000FB685A70F9687868FCF738F900231846DE
:104FC0001037BD4680BD00BF80B584B000AF7860AB
:104FD0000B46FB70FB785BB2002B0CDAFB7803F01E
:104FE0007F0213469B001344DB0003F58C737A6841
:104FF0001344FB6009E0FA7813469B001344DB007E
:1050000003F55C737A681344FB60FB6800229A70B6
:10501000FB7803F07F03DAB2FB681A70FB78DB09D8
:10502000DBB21A46FB685A70F9687868FCF740F9F9
:10503000002318461037BD4680BD00BF80B485B040
:1050400000AF78600B46FB700023FB60FB7803F039
:105050007F03DAB2BB8962F30A13BB817B681B69E9
:105060007A6812691168FA680A431A6000BF143737
:10507000BD4680BC704700BF80B584B002AF786089
:10508000084611461A4603467B800B467B70134642
:105090003B707B88002B0ED0786800F075F838786C
:1050A0007A7879883B7D01933B7C0093034678684E
:1050B00000F082F800E000BF0837BD4680BD00BFA9
:1050C00080B586B002AF7860084611461A4603469E
:1050D0007B800B467B7013463B707B88002B3ED059
:1050E000786800F051F80023FB6029E07A88FB68BB
:1050F00042FA03F303F00103002B1DD0FB68DA082A
:10510000FB68D9087B68083153F82130F96801F051
:10511000070189000F2000FA01F1C9430B40387FD5
:10512000F96801F00701890000FA01F119437B6871
:10513000083243F8221000E000BFFB680133FB6037
:10514000FB680F2BD2D97A7879883B7E01933B7824
:10515000009313460222786800F02EF800E000BFAA
:105160001037BD4680BD00BF80B483B000AF78600B
:105170007B6803F13F4303F57E039B0A9BB218460D
:105180000C37BD4680BC704780B582B000AF7860F8
:105190007868FFF7E9FF03461A46012303FA02F194
:1051A000044A044B1B6B0B43136300BF0837BD4617
:1051B00080BD00BF0038024080B584B000AF786089
:1051C000084611461A4603467B800B467B70134601
:1051D0003B707868FFF7C8FF0346BB730023FB737F
:1051E00068E07A88FB7B42FA03F303F00103002BAB
:1051F0005CD0BB7BBA7B334931F8122090B2FA7B8A
:10520000012101FA02F292B201460A4392B291B22E
:105210002C4A22F813107B68DB68FA7B52000321CA
:1052200001FA02F2D2431340397EFA7B520001FAAE
:1052300002F21A437B68DA607B681A68FB7B5B00CA
:10524000032101FA03F3DB4313407978FA7B520020
:1052500001FA02F21A437B681A607B78012B02D0B4
:105260007B78022B23D17B685B68FA7B012101FAF2
:1052700002F292B2D2431A403978FB7B01FA03F36F
:105280009BB21A437B685A607B689A68FB7B5B0021
:10529000032101FA03F3DB431340397FFA7B520009
:1052A00001FA02F21A437B689A6000E000BFFB7BC0
:1052B0000133FB73FB7B0F2B93D900BF1037BD4627
:1052C00080BD00BF8801002080B586B000AFF860C7
:1052D000B9601346FB800023FB75FA88FB68C3F8AE
:1052E0003821FA88FB68C3F83421FB68022283F86E
:1052F0001121FB88BA680021F868FFF7EFFDFB7DFC
:1053000018461837BD4680BD80B586B000AFF8603E
:10531000B9601346FB800023FB75FB88BA68002147
:10532000F868FFF7DBFDFB7D18461837BD4680BDEA
:1053300080B586B000AFF860B9601346FB800023EB
:10534000FB75FA88FB68C3F89023FA88FB68C3F8FA
:105350008C23FB68032283F81121FB88BA680021A3
:10536000F868FFF779FDFB7D18461837BD4680BD0C
:1053700080B586B000AFF860B9601346FB800023AB
:10538000FB75FB88BA680021F868FFF765FDFB7DB7
:1053900018461837BD4680BD80B584B000AF786030
:1053A0000023FB737B68042283F811210023002271
:1053B00000217868FFF792FD7868FBF7F9FFFB7B27
:1053C00018461037BD4680BD80B584B000AF786008
:1053D0000023FB737B68052283F811210023002240
:1053E00000217868FFF738FD7868FBF7E1FFFB7B69
:1053F00018461037BD4680BD80F0004002E000BF77
:1054000081F0004142001FBF5FEA410392EA030FAF
:105410007FEA226C7FEA236C6AD04FEA1262D2EBF9
:105420001363C1BFD218414048404140B8BF5B42FE
:10543000192B88BF704710F0004F40F4000020F097
:105440007F4018BF404211F0004F41F4000121F0AD
:105450007F4118BF494292EA030F3FD0A2F10102F7
:1054600041FA03FC10EB0C00C3F1200301FA03F135
:1054700000F0004302D5494260EB4000B0F5000F58
:1054800013D3B0F1807F06D340084FEA310102F117
:105490000102FE2A51D2B1F1004F40EBC25008BFC9
:1054A00020F0010040EA03007047490040EB000093
:1054B00010F4000FA2F10102EDD1B0FA80FCACF1C2
:1054C000080CB2EB0C0200FA0CF0AABF00EBC250C1
:1054D00052421843BCBFD0401843704792F0000FAF
:1054E00081F4000106BF80F400000132013BB5E702
:1054F0004FEA41037FEA226C18BF7FEA236C21D078
:1055000092EA030F04D092F0000F08BF08467047DC
:1055100090EA010F1CBF0020704712F07F4F04D1AA
:10552000400028BF40F00040704712F100723CBFBD
:1055300000F50000704700F0004343F0FE4040F4E7
:10554000000070477FEA226216BF08467FEA2363A5
:105550000146420206BF5FEA412390EA010F40F490
:10556000800070474FF0000304E000BF10F00043DC
:1055700048BF40425FEA000C08BF704743F09643C3
:1055800001464FF000001CE050EA010208BF7047DE
:105590004FF000030AE000BF50EA010208BF704765
:1055A00011F0004302D5404261EB41015FEA010C7A
:1055B00002BF84460146002043F0B64308BFA3F172
:1055C0008053A3F50003BCFA8CF2083AA3EBC25354
:1055D00010DB01FA02FC634400FA02FCC2F1200273
:1055E000BCF1004F20FA02F243EB020008BF20F0AA
:1055F0000100704702F1200201FA02FCC2F1200210
:1056000050EA4C0021FA02F243EB020008BF20EA04
:10561000DC7070474FF0FF0C1CEAD0521EBF1CEA32
:10562000D15392EA0C0F93EA0C0F6FD01A4480EA20
:10563000010C400218BF5FEA41211ED04FF0006309
:1056400043EA501043EA5111A0FB01310CF0004035
:10565000B1F5000F3EBF490041EAD3715B0040EA5B
:10566000010062F17F02FD2A1DD8B3F1004F40EB2B
:10567000C25008BF20F00100704790F0000F0CF0FE
:10568000004C08BF49024CEA502040EA51207F3AC2
:10569000C2BFD2F1FF0340EAC250704740F400009D
:1056A0004FF00003013A5DDC12F1190FDCBF00F08E
:1056B00000407047C2F10002410021FA02F1C2F13C
:1056C000200200FA02FC5FEA310040F1000053EAD8
:1056D0004C0308BF20EADC70704792F0000F00F026
:1056E000004C02BF400010F4000F013AF9D040EA2C
:1056F0000C0093F0000F01F0004C02BF490011F4C0
:10570000000F013BF9D041EA0C018FE70CEAD153BD
:1057100092EA0C0F18BF93EA0C0F0AD030F0004C3D
:1057200018BF31F0004CD8D180EA010000F00040F1
:10573000704790F0000F17BF90F0004F084691F0AF
:10574000000F91F0004F14D092EA0C0F01D14202E9
:105750000FD193EA0C0F03D14B0218BF084608D1B2
:1057600080EA010000F0004040F0FE4040F40000FC
:10577000704740F0FE4040F4400070474FF0FF0C8F
:105780001CEAD0521EBF1CEAD15392EA0C0F93EAD6
:105790000C0F69D0A2EB030280EA010C49024FEA28
:1057A000402037D04FF0805343EA111143EA1013E1
:1057B0000CF000408B4238BF5B0042F17D024FF499
:1057C000000C8B4224BF5B1A40EA0C00B3EB510F74
:1057D00024BFA3EB510340EA5C00B3EB910F24BF5D
:1057E000A3EB910340EA9C00B3EBD10F24BFA3EBE2
:1057F000D10340EADC001B0118BF5FEA1C1CE0D1AA
:10580000FD2A3FF650AF8B4240EBC25008BF20F05C
:10581000010070470CF0004C4CEA50207F32C2BFB0
:10582000D2F1FF0340EAC250704740F400004FF04D
:105830000003013A37E792F0000F00F0004C02BF7E
:10584000400010F4000F013AF9D040EA0C0093F048
:10585000000F01F0004C02BF490011F4000F013BA2
:10586000F9D041EA0C0195E70CEAD15392EA0C0F0A
:1058700008D142027FF47DAF93EA0C0F7FF470AF42
:10588000084676E793EA0C0F04D14B023FF44CAF85
:1058900008466EE730F0004C18BF31F0004CCAD11A
:1058A00030F000427FF45CAF31F000437FF43CAF56
:1058B0005FE700BF4FEA4002B2F1FE4F0FD34FF057
:1058C0009E03B3EB12620DD94FEA002343F000436D
:1058D00010F0004F23FA02F018BF404270474FF01B
:1058E0000000704712F1610F01D1420205D110F0A2
:1058F000004008BF6FF0004070474FF00000704755
:1059000053544D3332205669727475616C20436F65
:105910006D506F727420696E204853206D6F6465FE
:105920000000000053544D33322056697274756183
:105930006C20436F6D506F727420696E2046532047
:105940004D6F64650000000053544D6963726F65CC
:105950006C656374726F6E69637300003030303051
:1059600030303030303530420000000030303030E0
:105970003030303030353043000000005643502086
:10598000436F6E666967000056435020496E746528
:0659900072666163650010
:105996007514000881140008A9140008CD14000825
:1059A600D9140008B5140008C114000851160008DF
:1059B6001D170008E5150008AD1800082118000895
:1059C60089180008651800083119000851190008DF
:1059D60000000000000000001C0000201526000842
:1059E600392600089D2600085D260008C526000801
:1059F60005270008412700081201000200000040A8
:105A06008304405700020102030100000A06000257
:105A160000000040010000000403090400C2010068
:105A260000000800512D0008612D0008712D0008A6
:105A36009D2E0008F92E0008007A030A00000000D7
:105A460000000000010203040607080909024300DA
:105A5600020100C03209040000010202010005240F
:105A66000010010524010001042402020524060099
:105A760001070582030800FF09040100020A00006D
:105A860000070501024000000705810240000000F2
:105A9600FF000000E94500086D460008A54600081D
:105AA60000000000C547000805480008C548000872
:105AB600194900080000000000000000494A0008DB
:0400000508000000EF
:00000001FF
